:020000040000FA
:100000000C945C000C948B010C9464010C947900AA
:100010000C9479000C9479000C9479000C9479007C
:100020000C9479000C9479000C9479000C9479006C
:100030000C9479000C9479000C9479000C9479005C
:100040000C941A010C9479000C9479000C947900AA
:100050000C9479000C9479000C9479000C9479003C
:100060000C9479000C947900000000080002010053
:100070000003040700000000000000000000000072
:10008000250028002B0000000000240027002A0083
:10009000040404040404040402020202020203032E
:1000A0000303030301020408102040800102040836
:1000B000102001020408102011241FBECFEFD8E049
:1000C000DEBFCDBF11E0A0E0B1E0E4E5F5E002C0A5
:1000D00005900D92AE30B107D9F721E0AEE0B1E066
:1000E00001C01D92AB31B207E1F70E94B2010C943E
:1000F000A8020C94000090E0FC01EC55FF4F249105
:1001000080579F4FFC018491882399F090E0880FDD
:10011000991FFC01EA57FF4FA591B491FC01E458E7
:10012000FF4F859194918FB7F894EC91E22BEC936B
:100130008FBF0895809110019091110101969093C5
:10014000110180931001089580910E0190910F018B
:10015000019690930F0180930E01089590E0FC01A9
:10016000E859FF4F2491FC01EC55FF4F3491FC01FD
:10017000E057FF4FE491EE23C9F0222339F02330FA
:1001800001F1A8F4213019F1223029F1F0E0EE0F4D
:10019000FF1FE458FF4FA591B4918FB7F894EC91ED
:1001A000611126C030953E233C938FBF08952730C0
:1001B000A9F02830C9F0243049F7809180008F7D64
:1001C00003C0809180008F7780938000DFCF84B55B
:1001D0008F7784BDDBCF84B58F7DFBCF8091B0005E
:1001E0008F778093B000D2CF8091B0008F7DF9CF10
:1001F0003E2BDACF08950F931F93CF93DF93082FF1
:10020000162FD42FC8E06D2F661F6627661F802F1C
:100210000E94AE00DD0F61E0812F0E94AE0060E021
:10022000812F0E94AE00C15071F7DF91CF911F91D5
:100230000F9108951F920F920FB60F9211242F93D2
:100240003F938F939F93AF93BF93809117019091AA
:100250001801A0911901B0911A013091160123E003
:10026000230F2D3758F50196A11DB11D20931601BE
:100270008093170190931801A0931901B0931A016C
:100280008091120190911301A0911401B091150178
:100290000196A11DB11D8093120190931301A093AB
:1002A0001401B0931501BF91AF919F918F913F9130
:1002B0002F910F900FBE0F901F90189526E8230FD7
:1002C0000296A11DB11DD2CF1F920F920FB60F92B1
:1002D00011242F933F934F935F936F937F938F934B
:1002E0009F93AF93BF93EF93FF93E0910201F0913F
:1002F00003010995FF91EF91BF91AF919F918F916C
:100300007F916F915F914F913F912F910F900FBE11
:100310000F901F9018951F920F920FB60F921124F5
:100320002F933F934F935F936F937F938F939F93FD
:10033000AF93BF93EF93FF93E0910001F091010120
:100340000995FF91EF91BF91AF919F918F917F910F
:100350006F915F914F913F912F910F900FBE0F9032
:100360001F901895789484B5826084BD84B58160AF
:1003700084BD85B5826085BD85B5816085BD809170
:100380006E00816080936E001092810080918100E8
:1003900082608093810080918100816080938100E0
:1003A000809180008160809380008091B1008460A2
:1003B0008093B1008091B00081608093B000809103
:1003C0007A00846080937A0080917A0082608093C2
:1003D0007A0080917A00816080937A0080917A001F
:1003E000806880937A001092C10088E00E947B00B0
:1003F0008CE00E947B008BE00E947B0085E00E94E5
:100400007B0087E00E947B0086E00E947B008AE9F7
:1004100090E09093010180930001809169008360D6
:1004200080936900E89A84EA90E0909303018093B6
:100430000201809169008C6080936900E99A8AE0EA
:10044000C82ED12CE12CF12CC0E0D0E0809010011E
:1004500090901101092C000CAA08BB0860E088E00C
:100460000E94AE00C501B401A70196010E94860258
:100470004B01CA01B901A70196010E9486026C5F77
:100480007E4FFB0140816CE08BE00E94FB00F40199
:10049000EC5FFE4F40816CE08BE00E94FB0061E06E
:1004A00088E00E94AE0080900E0190900F01092C10
:1004B000000CAA08BB0860E085E00E94AE00C50100
:1004C000B401A70196010E9486024B01CA01B9013D
:1004D000A70196010E9486026C5F7E4FFB0140815E
:1004E00067E086E00E94FB00F401EC5FFE4F408174
:1004F00067E086E00E94FB0061E085E00E94AE00BC
:10050000209709F4A3CF0E940000A0CFA1E21A2EE9
:10051000AA1BBB1BFD010DC0AA1FBB1FEE1FFF1FA7
:10052000A217B307E407F50720F0A21BB30BE40BF7
:10053000F50B661F771F881F991F1A9469F760953E
:100540007095809590959B01AC01BD01CF010895F8
:10055000F894FFCFFA00FA00C0F9A4B0999282F89B
:02056000809089
:107E0000112484B714BE81FFF0D085E080938100F7
:107E100082E08093C00088E18093C10086E0809377
:107E2000C20080E18093C4008EE0C9D0259A86E02C
:107E300020E33CEF91E0309385002093840096BBD3
:107E4000B09BFECF1D9AA8958150A9F7CC24DD24C4
:107E500088248394B5E0AB2EA1E19A2EF3E0BF2EE7
:107E6000A2D0813461F49FD0082FAFD0023811F036
:107E7000013811F484E001C083E08DD089C08234E0
:107E800011F484E103C0853419F485E0A6D080C0E4
:107E9000853579F488D0E82EFF2485D0082F10E0AE
:107EA000102F00270E291F29000F111F8ED06801E7
:107EB0006FC0863521F484E090D080E0DECF843638
:107EC00009F040C070D06FD0082F6DD080E0C81688
:107ED00080E7D80618F4F601B7BEE895C0E0D1E017
:107EE00062D089930C17E1F7F0E0CF16F0E7DF06D8
:107EF00018F0F601B7BEE89568D007B600FCFDCFD4
:107F0000A601A0E0B1E02C9130E011968C91119780
:107F100090E0982F8827822B932B1296FA010C0160
:107F200087BEE89511244E5F5F4FF1E0A038BF0790
:107F300051F7F601A7BEE89507B600FCFDCF97BE46
:107F4000E89526C08437B1F42ED02DD0F82E2BD052
:107F50003CD0F601EF2C8F010F5F1F4F84911BD097
:107F6000EA94F801C1F70894C11CD11CFA94CF0C13
:107F7000D11C0EC0853739F428D08EE10CD085E9AC
:107F80000AD08FE07ACF813511F488E018D01DD067
:107F900080E101D065CF982F8091C00085FFFCCF94
:107FA0009093C60008958091C00087FFFCCF809118
:107FB000C00084FD01C0A8958091C6000895E0E648
:107FC000F0E098E1908380830895EDDF803219F02E
:107FD00088E0F5DFFFCF84E1DECF1F93182FE3DFCA
:107FE0001150E9F7F2DF1F91089580E0E8DFEE27F6
:047FF000FF270994CA
:027FFE00040479
:00000001FF
